:020000040000FA
:060000000A128A11EE2F26
:100E7E003F3406345B344F3466346D347D3407347E
:100E8E007F346F3477347C3439345E347934713452
:100E9E007E088A007F0882000A128A114F270A12E2
:100EAE008A118000840A04087D0603190034FF0AA3
:100EBE000319FE0A532F712FC730F200662FF20B63
:100ECE00652F692F6A2F0130F0020030031CF103E9
:100EDE00F102712F70087104031D762F772F632F87
:100EEE00782F0800F40010307402031C7F2F802F1F
:100EFE00832FF201F3018F2F7408203E8400831399
:100F0E000008F000F1017008F2007108F3008F2F55
:100F1E0072088312031388000800F7010A128A115F
:100F2E00B8270A128A119B2F77080A128A1179277D
:100F3E000A128A11F430F0000130F1000A128A11FF
:100F4E0062270A128A110130F5007508F707770833
:100F5E000F39F6007608F7009B2F9B2F0A128A1185
:100F6E000028831603138801FF30831203138800B1
:100F7E00F430F0000130F1000A128A1162270A12D1
:100F8E008A11831203138801F430F0000130F1004E
:100F9E000A128A1162270A128A11FF308312031372
:100FAE008800F430F0000130F1000A128A11622735
:100FBE000A128A11831203138801F430F0000130F3
:100FCE00F1000A128A1162270A128A11080083138D
:100FDE003030FD000730FE003F30FF00203084002F
:100FEE000A128A1153270A128A1183010A128A11D0
:020FFE00942F2E
:02400E00D4EFED
:00000001FF
